:0200000460009A
:10000000464346420004015600000000010303007D
:1000100000000000000000000000000000000000E0
:1000200000000000000000000000000000000000D0
:1000300000000000000000000000000000000000C0
:1000400000000000010406000000000000000000A5
:100050000000400000000000000000000000000060
:100060000000000000000000000000000000000090
:100070000000000000000000100010000000000060
:10008000EB04180A063204260000000000000000FD
:100090000000000000000000000000000000000060
:1000A0000000000000000000000000000000000050
:1000B0000000000000000000000000000000000040
:1000C0000000000000000000000000000000000030
:1000D0000000000000000000000000000000000020
:1000E0000000000000000000000000000000000010
:1000F0000000000000000000000000000000000000
:1001000000000000000000000000000000000000EF
:1001100000000000000000000000000000000000DF
:1001200000000000000000000000000000000000CF
:1001300000000000000000000000000000000000BF
:1001400000000000000000000000000000000000AF
:10015000000000000000000000000000000000009F
:10016000000000000000000000000000000000008F
:10017000000000000000000000000000000000007F
:10018000000000000000000000000000000000006F
:10019000000000000000000000000000000000005F
:1001A000000000000000000000000000000000004F
:1001B000000000000000000000000000000000003F
:1001C000000100000010000000000000000000001E
:1001D000000000000000000000000000000000001F
:1001E000000000000000000000000000000000000F
:1001F00000000000000000000000000000000000FF
:0200000460009A
:10100000D10020410020006000000000301000608E
:1010100020100060001000600000000000000000D0
:1010200000000060FFFF7F1F00000000FFFFFFFFC8
:10103000D2043041CC03AC04400FC068FFFFFFFF77
:10104000400FC06CFFFFFFFF400FC070FFFFFFFFAE
:10105000400FC074FFFFFFFF400FC078FFFFFFFF8E
:10106000400FC07CFFFFFFFF400FC080FFFFFFFF6E
:10107000400D803000002001400D8100001D000067
:10108000400FC01400010D40401F801400000000FC
:10109000401F801800000000401F801C000000005E
:1010A000401F802000000000401F8024000000003E
:1010B000401F802800000000401F802C000000001E
:1010C000401F803000000000401F803400000000FE
:1010D000401F803800000000401F803C00000000DE
:1010E000401F804000000000401F804400000000BE
:1010F000401F804800000000401F804C000000009E
:10110000401F805000000000401F8054000000007D
:10111000401F805800000000401F805C000000005D
:10112000401F806000000000401F8064000000003D
:10113000401F806800000000401F806C000000001D
:10114000401F807000000000401F807400000000FD
:10115000401F807800000000401F807C00000000DD
:10116000401F808000000000401F808400000000BD
:10117000401F808800000000401F808C000000009D
:10118000401F809000000000401F8094000000007D
:10119000401F809800000000401F809C000000005D
:1011A000401F80A000000000401F80A4000000003D
:1011B000401F80A800000000401F80AC000000001D
:1011C000401F80B000000010401F80B400000000ED
:1011D000401F80B800000000401F8204000110F989
:1011E000401F8208000110F9401F820C000110F915
:1011F000401F8210000110F9401F8214000110F9F5
:10120000401F8218000110F9401F821C000110F9D4
:10121000401F8220000110F9401F8224000110F9B4
:10122000401F8228000110F9401F822C000110F994
:10123000401F8230000110F9401F8234000110F974
:10124000401F8238000110F9401F823C000110F954
:10125000401F8240000110F9401F8244000110F934
:10126000401F8248000110F9401F824C000110F914
:10127000401F8250000110F9401F8254000110F9F4
:10128000401F8258000110F9401F825C000110F9D4
:10129000401F8260000110F9401F8264000110F9B4
:1012A000401F8268000110F9401F826C000110F994
:1012B000401F8270000110F9401F8274000110F974
:1012C000401F8278000110F9401F827C000110F954
:1012D000401F8280000110F9401F8284000110F934
:1012E000401F8288000110F9401F828C000110F914
:1012F000401F8290000110F9401F8294000110F9F4
:10130000401F8298000110F9401F829C000110F9D3
:10131000401F82A0000110F9401F82A4000110F9B3
:10132000401F82A8000110F9402F000010000004A7
:10133000402F000800030524402F000C060305245D
:10134000402F00108000001B402F00148200001B63
:10135000402F00188400001B402F001C8600001B3B
:10136000402F002090000021402F0024A0000019F1
:10137000402F0028A8000017402F002CA900001BB8
:10138000402F003000000021402F0004000079A809
:10139000402F004000000F31402F004400652922FB
:1013A000402F004800010920402F004C50210A081E
:1013B000402F008000000021402F00840088888892
:1013C000402F009400000002402F00980000000011
:1013D000402F009080000000402F009CA55A000F75
:1013E000CF000C1C402F003C00000001CC00140476
:1013F000402F009080000000402F009CA55A000C58
:10140000CF000C1C402F003C00000001CC00140455
:10141000402F009080000000402F009CA55A000C37
:10142000CF000C1C402F003C00000001CC001C042D
:10143000402F00A000000033402F009080000000EB
:10144000402F009CA55A000ACF000C1C402F003CE6
:1014500000000001CC000C04402F004C50210A0970
:0200000460009A
:10200000005000004F27006075D40060BD250060BF
:10201000DB25006021740060C565016000000000E0
:102020000000000000000000000000007D0E0160C4
:10203000D38E0060000000007D270060FD25006059
:102040008127006085270060892700608D27006058
:102050009127006095270060992700609D27006008
:10206000A1270060A5270060A9270060AD270060B8
:10207000B1270060B5270060B9270060BD27006068
:10208000C12700603D2800603D2800603D280060B9
:102090008DB10060B9B10060E5B1006011B20060BF
:1020A0003DB2006069B2006095B20060C1B20060EC
:1020B000E5270060E9270060ED270060F127006058
:1020C000F5270060F9270060FD2700600128006007
:1020D00005280060092800603D2800603D28006058
:1020E0003D2800603D2800603D280060410400005C
:1020F0003D2800603D2800601D0E01603D28006005
:102100003D2800603D2800603D2800603D280060BB
:102110003D2800603D2800603D2800603D280060AB
:102120000D28006011280060152800601928006043
:102130001D2800603D2800603D2800603D280060AB
:102140003D2800603D2800603D2800603D2800607B
:102150003D2800603D280060352600603D28006075
:102160003D2800603D2800603D2800603D2800605B
:102170003D2800603D2800603D2800603D2800604B
:102180003D2800603D2800603D280060359D0060CE
:102190003D2800603D2800603D2800603D2800602B
:1021A0003D2800603D28006021280060252800604F
:1021B0003D2800603D2800603D2800603D2800600B
:1021C0003D2800603D2800603D2800603D280060FB
:1021D0003D2800603D2800603D2800603D280060EB
:1021E0003D2800603D2800603D2800603D280060DB
:1021F000292800603D2800602D28006031280060FB
:10220000355A0160295A016035280060A5930060A5
:102210003D2800603D2800603D2800603D280060AA
:102220003D2800603D2800603D2800603D2800609A
:102230003D2800603D2800603D2800603D2800608A
:102240003D2800603D2800603D2800603D2800607A
:102250003D280060B1150160B7150160BD15016032
:10226000C31501603D2800603D2800603D280060E6
:102270003D2800603D2800603D2800603D2800604A
:102280003D2800603D2800603D2800603D2800603A
:102290003D2800603D2800603D2800603D2800602A
:1022A000B5E700603D2800603D2800603D280060E3
:1022B0003D2800603D2800603D2800603D2800600A
:1022C0003D2800603D2800603D2800603D280060FA
:1022D0003D2800603D2800603D2800603D280060EA
:1022E0003D2800603D2800603D2800603D280060DA
:1022F0003D2800603D2800603D2800603D280060CA
:102300003D2800603D2800603D2800603D280060B9
:102310003D2800603D2800603D2800603D280060A9
:102320003D2800603D2800603D2800603D28006099
:102330003D2800603D2800603D2800603D28006089
:102340003D2800603D2800603D2800603D28006079
:102350003D2800603D2800603D2800603D28006069
:102360003D2800603D2800603D2800603D28006059
:102370003D2800603D2800603D2800603D28006049
:102380003D2800603D2800603D2800603D28006039
:102390003D2800603D2800603D2800603D28006029
:1023A0003D2800603D2800603D2800603D28006019
:1023B0003D2800603D2800603D2800603D28006009
:1023C0003D2800603D2800603D2800603D280060F9
:1023D0003D2800603D2800603D2800603D280060E9
:1023E0003D2800603D2800603D2800603D280060D9
:1023F0003D2800603D2800603D280060FFFFFFFF92
:1024000000F002F800F094F80AA090E8000C824472
:102410008344AAF10107DA4501D100F089F8AFF24F
:10242000090EBAE80F0013F0010F18BFFB1A43F0B2
:102430000103184780060E0000070E000A444FF003
:10244000000C10F8013B13F0070408BF10F8014B13
:102450001D1108BF10F8015B641E05D010F8016B58
:10246000641E01F8016BF9D113F0080F1EBF10F8BC
:10247000014BAD1C0C1B09D16D1E58BF01F801CBDF
:10248000FAD505E014F8016B01F8016B6D1EF9D562
:102490009142D6D370470000103A24BF78C878C163
:1024A000FAD8520724BF30C830C144BF04680C605A
:1024B000704700000023002400250026103A28BFA2
:1024C00078C1FBD8520728BF30C148BF0B607047A6
:1024D000702900F06184662905F03088642900F0D5
:1024E000EB83752900F0E883782900F0488463299C
:1024F00001F04380732901F04880002070471FB528
:1025000084F044FE0748084900F05AFD00F027FD1A
:1025100001F052F804000020002184F07FFCE0600C
:102520001FBD0000408603204087032010B510BD6A
:10253000DFF80CD0FFF7E3FF4BF0DEF801F076F99F
:102540000050000003B4FFF7F1FF03BC01F0ACF949
:10255000C460056146618761C0F81C80C0F82090A6
:10256000C0F824A0C0F828B0C0F82CD080ED0C8BA7
:1025700080ED0E9B80ED10ABC0F808E000B55DF07B
:102580003DFD00BDC468056946698769D0F81C80B7
:10259000D0F82090D0F824A0D0F828B0D0F82CD0D3
:1025A000D0F808E090ED0C8B90ED0E9B90ED10AB09
:1025B0004FF0807080F30388012070471EF0040FF5
:1025C0000CBFEFF30880EFF309802DE9F04F694667
:1025D00007F04CFEBDE8F04F70471EF0040F0CBF33
:1025E000EFF30880EFF309802DE9F00F69464FF013
:1025F000010207F03BFEBDE8F00F70471EF0040F2C
:102600000CBFEFF30880EFF3098000B50EF0EAFE8F
:102610005DF804EB704700004FF0807207920348AA
:102620000068009002480690704700008C5A2720EE
:102630008DFF056002480349006851F820100847E3
:10264000505827203C6D09600B49D1F800C04A68FA
:102650005CF8043B1068184442F8040B8C4528BF12
:10266000A1F1DC0C8A4228BFA1F1DC02C1F800C054
:102670004A6020F0004070471484272040BA704719
:1026800040BA704740BA704710B46D4C34F8020B32
:1026900010BC70476B484FF0AA01026861F3174203
:1026A00002606948694901606948026842F00702AE
:1026B00002604FF0005067494FF0000240F8042BD1
:1026C0008842FBD14FF000004FF400414FF0000270
:1026D00040F8042B8842FBD170475A484FF0AA01BA
:1026E000026861F31742026057485B49016058482D
:1026F000026842F007020260584859494FF0000250
:1027000040F8042B8842D9D14FF000004FF400412B
:102710004FF0000240F8042B8842D9D170474F484F
:1027200050494FF0120302680268026802680268AA
:10273000026802680268C0E900324FF034030A6898
:1027400003600368342B0CBF00200120704772B671
:1027500078464FF0C041A0EB01004FF0005290428C
:10276000FFF798FF4048804762B640480047FEE7C1
:10277000FEE7FEE7FEE7FEE7FEE7FEE7FEE7FEE731
:102780003B4800473B4800473B4800473B48004721
:102790003B4800473B4800473B4800473B48004711
:1027A0003B4800473B4800473B4800473B48004701
:1027B0003B4800473B4800473B4800473B480047F1
:1027C0003B4800473B4800473B4800473B480047E1
:1027D0003B4800473B4800473B4800473B480047D1
:1027E0003B4800473B4800473B4800473B480047C1
:1027F0003B4800473B4800473B4800473B480047B1
:102800003B4800473B4800473B4800473B480047A0
:102810003B4800473B4800473B4800473B48004790
:102820003B4800473B4800473B4800473B48004780
:102830003B4800473B4800473B4800473B48004770
:10284000F363202038C00A4044C00A40AAAAAAEA7A
:1028500040C00A4000800720555555D50000202073
:1028600000802720008020203515016001240060B1
:10287000DD8A0060658C00609D8C0060D58C0060F6
:102880000D8D0060458D00607D8D0060B58D006010
:10289000ED8D0060258E0060158B00604D8B006013
:1028A000858B0060BD8B0060F58B00602D8C006017
:1028B0003D28006075B10060A1B10060CDB100603D
:1028C000F9B1006025B2006051B200607DB20060D5
:1028D000A9B20060B1A50060BDA50060C9A50060F7
:1028E0003D28006075AA006089AA00609DAA00606A
:1028F000B1AA0060397400605174006025F3006073
:102900008DF300603D2800603D280060490E0160A5
:102910003D2800603D2800605D0200206D5A016086
:10292000855A01601D9400603D2800603D280060CC
:1029300040F8044B40F8045B40F8046B40F8047B1B
:1029400040F8048B40F8049B40F804AB40F804BB0B
:1029500040F804CB40F804DB6846704740F8044B6D
:1029600040F8045B40F8046B40F8047B40F8048BAB
:1029700040F8049B40F804AB40F804BB40F804CB9B
:1029800040F804DB00206A4601E041F8040B914264
:10299000FBD3704770B5064600F0F2FA056806F101
:1029A0000B0020F00704B4429CBF002070BD2B46F2
:1029B0006A68BAB11068A04210D304F108018842D5
:1029C0003CBF5068586007D35168101941601168C6
:1029D000091B016058601460101D70BD13465268D9
:1029E000002AE7D12146284600F0D6FA0028DED199
:1029F00070BD70B50446051F00F0C2FA0068002CD7
:102A000014BF446870BD002C18BFAC423CBF2046C8
:102A10006468F8D301680A18AA4218BF456003D158
:102A20002A6805461144016028684119A1421CBF6B
:102A30006C6070BD6168696021680844286070BD81
:102A400053EA020C00F069802DE9F04B4FF00006CC
:102A5000002B1FBFB3FA83F503FA05F424FA05F639
:102A60005E4012BF1643B2FA82F502FA05F4C5F1D0
:102A700020051EBF22FA05FC44EA0C04203556EA64
:102A8000044C4FEA144418BF641C4FF000084FF088
:102A90000009904271EB030C39D3002919BFB1FA38
:102AA00081F701FA07F6B0FA80F700FA07F6C7F1E6
:102AB00020071EBF20FA07FC46EA0C062037B6FBAB
:102AC000F4FCA7EB0507103F07F01F0BCBF1200626
:102AD0000CFA0BFB2CFA06F644BFB3460026202F57
:102AE000A4BF5E464FF0000B5BEA060C08BF4FF038
:102AF000010B19EB0B09ABFB027C48EB0608C01B72
:102B000006FB02CC0BFB03CC71EB0C01C1E70B46BF
:102B1000024641464846BDE8F08B13B54FF0000031
:102B20004FF00001AFF30080BDE81C407047B2F1E8
:102B300020030AD5C2F1200301FA02F120FA03F3BF
:102B400000FA02F041EA0301704700FA03F14FF086
:102B50000000704710B54C1084EA530404D540427D
:102B6000C1F1000138BF491E1B4204D55242C3F1D6
:102B7000000338BF5B1EFFF763FF14F0804F04D0E3
:102B80004042C1F1000138BF491E14F0004F04D08B
:102B90005242C3F1000338BF5B1E10BD0FB404499D
:102BA00010B503AA029800F0F5FC10BC5DF814FB08
:102BB000405827200FB41CB5084B06AA7B44694631
:102BC0000090059800F0AFFC04460020694600F034
:102BD000BDFC20461CBC5DF814FB00008D09000004
:102BE0000FB47CB50C0009AA009001D02044401E0F
:102BF000084B7B4469460190089800F094FC054618
:102C00001CB10020694600F0A1FC28467CBC5DF8A0
:102C100014FB00006109000070B504468569006876
:102C2000C10601D5302600E02026C00707D070BDC0
:102C3000D4E9012130469047206A401C20626D1E75
:102C4000F6D570BD70B5044685690078C00707D118
:102C500070BDD4E9012120209047206A401C2062E9
:102C60006D1EF6D570BD70B50C460546012A05D01F
:102C70002878800600D5EA69002302E0012305E0F8
:102C80005B1C934202D2E05C0028F9D1A869E618E7
:102C9000C01AA861286A184428622846FFF7BCFFBA
:102CA00004E0D5E9012114F8010B9047B442F8D3B0
:102CB0002846FFF7C7FF70BD2DE9F0410646002406
:102CC00010687529314616A510D0AFF30080002892
:102CD00002DA404213A507E031688A0701D512A540
:102CE00002E0490704D511A5012401E0AFF30080FB
:102CF00000210A2206F1240709E0B0FBF2FCB0FB38
:102D0000F2F302FB1C00303078541846491C0028AE
:102D1000F3D123462A463046BDE8F04100F095B98C
:102D2000000000002D0000002B000000200000002B
:102D3000F0B40D460188090502D51B4C7C4402E025
:102D4000194C7C440E34002100F1240305E002F00C
:102D50000F061209A65D5E54491C002AF7D10278BD
:102D60000023120704D5702D06D009B102231134B7
:102D70002246F0BC00F069B901231034F8E770B5C1
:102D800004460D4621461068AFF3008002462946EE
:102D90002046BDE87040CBE70368126843F020038B
:102DA00003600823C361C3E736520D002DE9F05FCD
:102DB000894604464FF0000ADFF874B1FB44C0F8BE
:102DC00020A02046E1688847002874D0252806D036
:102DD000D4E901219047206A401C2062F1E70026D7
:102DE0005F462046E16888472028054607DB312DED
:102DF00005D2781910F8200C08B10643F1E7B007A6
:102E000001D526F00406C4F81CA00027C4F818A0B9
:102E10002A2D09D0284617F033FE38B304EB870873
:102E2000303DC8F8185019E059F8041B204604EB4F
:102E300087029161E1688847012F054618D1E06952
:102E4000002820DA26F020061DE0D8F8180000EB54
:102E5000800005EB40003038C8F818002046E168D3
:102E60008847054617F00CFE0028EED1012F0AD046
:102E70002E2D08D12046E16888477F1C0546022F89
:102E800046F02006C4DBA069002803DA404246F081
:102E90000106A061F00701D026F010066C2D0BD0C2
:102EA000682D09D04C2D39D06A2D35D0742D35D0F0
:102EB0007A2D33D016E038E0E1682F462046884767
:102EC000B842054609D16C2F26D04FF48060E168E6
:102ED000064320468847054604E06C2F1AD04FF47D
:102EE000807006430DB3A5F14100192802D82035A2
:102EF00046F400664A462946204626604E46FFF7BD
:102F0000E7FA80B101280BD0F61D26F0070000F18A
:102F1000080956E74020E4E78020D8E70020D6E7FC
:102F200006F104094DE7284652E7206ABDE8F09F04
:102F3000DE510D000B4910B5A1F17C020A4CC2E92B
:102F40003712372106E000EB104342F82130074BDF
:102F500000FB03400B1EA1F10101F4DC10BD0120B8
:102F6000E8E70000B4832720E119D666CD0D010003
:102F700002F0FF0343EA032242EA024203F026BDC5
:102F80000048704724842720004870471C8427206D
:102F9000704770477047704738B504460A460020AE
:102FA0006946AFF30080002808BF38BD024600998B
:102FB000204600F005FB012038BD012000F016BCC2
:102FC000F8B5AFF30080054600200C46102000BF86
:102FD0000646A819A0420DD9324669460020AFF333
:102FE0000080070008BF00F001FC0098A04218BF55
:102FF0000546C419FFF7C4FF05600746F01D20F021
:1030000007004619284600F00AF8B44208BFF8BD88
:10301000A21B31463868BDE8F84000F0D1BA002163
:103020000160C0E9011070471020704700487047E8
:10303000046F272010B5FFF7A7FF006810BD10B57B
:103040000446FFF7A1FF046010BD2DE9F0470D46CF
:1030500099469246044600F124080168880604D582
:10306000E06921F01001216000E00120A84201DDAB
:10307000471B00E00027A1697A1902EB0900081A32
:10308000A0612078C00602D42046FFF7C5FD0026C7
:1030900008E0D4E901211AF806009047206A401C94
:1030A000761C20624E45F4DB2078C0060AD5204607
:1030B000FFF7B2FD06E0D4E9012130209047206AF5
:1030C000401C2062381EA7F10107F4DC07E0D4E9B8
:1030D000012118F805009047206A401C2062281E34
:1030E000A5F10105F3DC2046FFF7ACFD20780006D2
:1030F00002D50220BDE8F0870120FBE770472DE9EB
:10310000FF4F0C461E464FF0FF378BB0D2E900014F
:10311000DDF860800A908A46C1F30A5505B93D463C
:103120000021084684F0B8F9BAF1000F00F440001D
:1031300005DA00EB80004FF4400101EA50004FEA4D
:103140009059B9F1010F00DDB9460A9850EA4A00DA
:103150000ED044F61050A5F2FF3545432F14B8F1B8
:10316000000F1ED07542291E1EDDC9F100021CE0B1
:10317000B8F1010F4FF0000001D0302103E0F2431D
:1031800005E02154401CB042FBDB30460022002108
:1031900021540B99C1F80880C1E900200FB0BDE8A7
:1031A000F08FBD1B6D1CDEE74A4600DA694206A8B7
:1031B00000F0A6FA06AB93E8070003AB83E807002C
:1031C00050460A9903F03AF88DE80700A0F5005040
:1031D0001F3800900398002D0ADD42F21F014A4675
:1031E0000844002303A90390684603F0A3FA09E00A
:1031F000A0F500504A461F38002303A903906846F3
:1032000003F0ADFA8DE807000004000C03D04FF086
:10321000FF30410800E01046B8F1000F03D0002253
:10322000009215461EE0751E05D400F0E3F9303219
:1032300062556D1EF9D5B3460122084302D0002223
:103240007F1C04E02078302801D100227F1E002A54
:10325000099784D01DE0112D07DA00F0CBF9303248
:1032600062556D1C50EA0102F5D1084302D0009866
:10327000C8B10EE00021681E05E0235C625C635467
:103280002254401E491C8142F7DBAB46A81B401E5E
:103290000990002004F80B000B98099AC0F80880E8
:1032A000C0E9002B7AE711264FF0000857E72DE917
:1032B000F04F88460446D21D22F0070191B0D1E9B3
:1032C0000001CDE90A0113F0DBFB02460B98C00FA9
:1032D00001D02D2007E02068810701D52B2002E0D6
:1032E000202101EAC000032A099001D0072A05DB4A
:1032F00003464146204600F0C3F90BE120788006E2
:1033000001D5E06900E00620B8F1650F814606D0DE
:10331000B8F1660F18D0B8F1670F70D131E0002016
:10332000B9F1110F009001DB112301E009F1010354
:103330000AAA01A90CA8FFF7E2FEDDE90C7000263D
:1033400009F10105834647E001204B4600904FF00C
:1033500000470AAA01A90CA8FFF7D1FEDDE90DB0CC
:103360000C995D46002610B909F101000D18B9EB62
:10337000050003D4C0F1FF3609F10105A5EB0900F2
:103380002BE0B9F1010F01DA4FF001090020B9F18A
:10339000110F0090484601DD112300E003460AAA00
:1033A00001A90CA8FFF7ABFEDDE90C704D46002625
:1033B0008346207800070AD4AB4500DA5D4601A8B1
:1033C000012D04DD411911F8011C302907D04F45AA
:1033D00002DA17F1040F04DA012082460FE06D1EB5
:1033E000EEE7002F02DCED1B3E4403E0781CA84210
:1033F00000DD7D1CB81B00F1010A4FF0004720786A
:10340000000703D4AA4501DB4FF0FF3A0021B7F1D2
:10341000004F0DF143088DF8431024D002202B23D8
:10342000002F01DA7F422D230A21021EA0F10100A4
:1034300000DC5FB197FBF1FC97FBF1F201FB1C7C18
:1034400017460CF1300C08F801CDEEE7A8F10100A9
:1034500003702188090501D5452100E06521A0F10F
:10346000010800F8011C09980FA9A1EB0807FF1D2E
:1034700000B10120411901EBEA70A1693844081A32
:10348000401EA0612078C00602D42046FFF7C4FB8E
:10349000099828B1D4E901219047206A401C206294
:1034A0002078C00622D52046FFF7B6FB1EE0002E8E
:1034B00004DBB34502DD01A8805D00E03020D4E9E3
:1034C00001219047206A401C2062761CAAF101006D
:1034D0005FEA000A0AD100F06FF8C0680168405C3A
:1034E000D4E901219047206A401C2062281EA5F1E2
:1034F0000105DCDC07E0D4E9012118F8010B904755
:10350000206A401C2062381EA7F10107F3DC204628
:10351000FFF798FB032011B041E6000001694A1C47
:1035200002610878704700B58FB0CDE90131002104
:10353000059105497944CDE9031011466846FFF726
:1035400035FC0FB000BD0000E5FFFFFF0A6802F880
:10355000010B0A607047D1E900239A4202D2531C42
:103560000B601070704710B5436913B1AFF3008062
:1035700001E0FFF778FB012010BD127800F1240173
:103580000A7000224A700122EDE711684FF0FF3205
:10359000E9E70000074B70B50D467B44FFF7C3FF1A
:1035A0000446284600F01EF910B14FF0FF3070BD00
:1035B000204670BD1DFB0200004870473C84272058
:1035C000034640688C46002818BF88423CBF03462B
:1035D0004068F8D318681844884207D00CF10300FB
:1035E00020F00700001D411A521A0146081D0A600A
:1035F000FFF7FFB930B5B0F10A024FEA900E71F152
:1036000000034EEA817EB0EB0E0061EB91014FEAC0
:10361000101E4EEA017E10EB0E0041EB11114FEA35
:10362000102E4EEA016E10EB0E0041EB11214FEA15
:10363000104E4EEA014E10EB0E0041EB11414018C6
:1036400041F100014FEAD00040EA41704FEAD10158
:1036500010EB80054FEA810444EA907444EB0104C6
:103660006D1944EB0404521BA3414FF0000348BF03
:103670000A3200D530BD401C41F1000130BD0000D0
:103680002DE9F0411F46044603260168072A01F48C
:10369000006004DB08B116A505E016A503E008B13B
:1036A00015A500E015A521F010002060A069C01E3E
:1036B000A0610FB1401EA0612046FFF7ADFA4FB1E7
:1036C000D4E9012138469047206A401C2062C01C82
:1036D000206206E0206AFAE7D4E9012115F8010B1F
:1036E0009047761EF8D22046FFF7ACFABDE8F0818D
:1036F0004E414E006E616E00494E4600696E660096
:103700002DE9F047814616468AB0354878440DC801
:103710008DE80D0032487844801C03AC0DC884E865
:103720000D0041F69B300844372190FBF1F290FBED
:10373000F1F5A5F1800501FB12041B3C02D56442A2
:10374000012000E00020DFF898A080460027FA441E
:10375000AAF1BE0A0EE0E0070AD03246684607EB3F
:10376000470101230AEB810102F0F9FF8DE8070010
:1037700064107F1C002CEED1194F7F44AE3F19E03E
:10378000E80715D007EB04100DF1180A90E80E00B9
:103790008AE80E00C068F04201D1981908903246BC
:1037A000012306A903A802F0DAFF03AB83E80700B0
:1037B0006D10641C002DE3D14FF0010332466946C1
:1037C000B8F1000F03A802D002F0B4FF01E002F04C
:1037D000C6FFC9E90001C9F808200AB0BDE8F087B2
:1037E000B84C0D00007B00F08000704710B500F071
:1037F00033F8BDE8104000F022B870471FB584B020
:1038000000200A9C06AB04AA02A90094AFF3008032
:1038100018B1DDE9020108B010BD0348204000F0F6
:1038200013F800200146F6E70000207C10B504469E
:10383000AFF300802046BDE81040FEF783BE0028AD
:1038400001D000F031B8704710B500F04DF8BDE878
:103850001040FFF7F4BF000010B5012805D000218B
:1038600003A000F027F8012010BD09A1F8E700002F
:1038700053494752544D454D3A204F7574206F6659
:103880002068656170206D656D6F727900000000C1
:103890003A2048656170206D656D6F727920636FA5
:1038A000727275707465640001491820ABBEFEE742
:1038B0002600020070B505460C460A2000E06D1C8B
:1038C00000F068F835B128780028F8D102E0641CCF
:1038D00000F060F814B120780028F8D1BDE87040FD
:1038E0000A2000F057B8000010B5022803D04101AB
:1038F00003D50DA112E0002010BD010101D50FA1DB
:103900000CE0C10001D511A108E0810001D512A190
:1039100004E0400001D513A100E0002115A0FFF74D
:10392000C9FF012010BD0000496E76616C696420FA
:103930004F7065726174696F6E000000446976694A
:103940006465204279205A65726F00004F76657277
:10395000666C6F7700000000556E646572666C6F70
:1039600077000000496E6578616374205265737555
:103970006C7400005349474650453A2041726974BF
:10398000686D6574696320657863657074696F6ECE
:103990003A20000008B569468DF800000320ABBE50
:1039A00008BD000030B583B00D4600230193384BAD
:1039B000186014460AB100231380036CDBB2019334
:1039C000036923F001030361036C23F0FF0343F059
:1039D000BE030364036E23F080430366436A43F02F
:1039E00008034362036943F001030361294B9D42CD
:1039F00040D92146012002F0EFF80346002836D0D6
:103A0000234B1B681A6922F001021A611A6C22F01A
:103A1000FF0201990A431A641E4A954203D91A6E9D
:103A200042F080421A669A6D22F00F029A659A6DF2
:103A300022F470629A659A6D42F00F029A651A69D3
:103A400042F001021A61FA2007F0A6FFFA2007F0FF
:103A5000A3FFFA2007F0A0FFFA2007F09DFF2346FE
:103A60000D4A0021084600F032F9034650B91846C5
:103A700003B030BD2146022002F0AEF80346002814
:103A8000BED1F4E70549044802F090FB0123EEE7BC
:103A90007C842720FF2C3101086F27204C2A0E60E0
:103AA0000F4B00221A800F4B19684B6913F0010F5E
:103AB00008D10B4A138801339BB213804EF6602263
:103AC0009342F0D981F86400002302E000BF013383
:103AD000DBB2022BFAD900BF00BF00BF00BF7047A6
:103AE000C88427207C842720214B00221A80214B68
:103AF0001A68536913F0807F08D01D490B88013381
:103B00009BB20B804EF660218B42F0D9536913F4BF
:103B1000805F03D05369536F00E0536F536913F014
:103B2000020FFAD1124B00211980536913F0010FD3
:103B300008D10F490B8801339BB20B804EF66021F0
:103B40008B42F2D982F86400094B00211980536935
:103B500013F0020F08D106490B8801339BB20B808A
:103B60004EF660218B42F2D9506FC0B2704700BF51
:103B7000C88427207C8427202DE9F0438BB0804621
:103B80000D4617461E46139C2022002102A84BF02A
:103B9000E0FE0CB100232380204602F032F981467A
:103BA00018B948460BB0BDE8F083072001F0A8FA29
:103BB000012001F0D1FF23238DF808301D238DF85B
:103BC0000930002306E09A1C0AA8024402F8201CCF
:103BD00001339BB20C2B25D818F803100029F2D121
:103BE000002307E003F10F020AA8024402F8201C98
:103BF00001339BB20C2B02D8E95C0029F2D1042FCF
:103C000000D900278DF82470731EDBB20C2B00D96D
:103C100006268DF825609DF848308DF82630002264
:103C2000134609E00023E5E70AA9194411F8201C0E
:103C30000A44D2B201339BB21E2BF5D98DF827204E
:103C4000009400234FF47A72202102A801F0B8FEFC
:103C500088B19DF80A90B9F1000F0FD1002CA0D0C7
:103C600001F06AFF83B21B029AB29DF80A308033DA
:103C70001343238095E74FF0000992E74FF00109C5
:103C80008FE710B582B0049C0194009313460A4656
:103C90000146282001F0A6F902B010BD10B584B08D
:103CA00004AC04F8011D009201232246052101F015
:103CB00053FA04B010BD00B583B0009100231A463A
:103CC0000146012001F0B8FA03B05DF804FBF0B53D
:103CD0008BB007460E4615461C462022002102A83E
:103CE0004BF037FE0CB100232380204602F089F808
:103CF000034610B918460BB0F0BD072001F000FADA
:103D0000012001F029FF1F238DF8083000228DF8D3
:103D100009208DF80A3000941346032102A801F00F
:103D20004FFE48B377B19DF80A309DF80B2002EBA7
:103D300003229DF80C3003EB02229DF80D3003EBBB
:103D400002233B6016B19DF80E3033700DB1002395
:103D50000AE00123CEE703F108020AA90A4412F897
:103D6000202CEA5401339BB29DF80F209A42F2D8DE
:103D70000022EA540123BDE70023BBE730B58BB036
:103D800005460C462022002102A84BF0E2FD0CB1B2
:103D900000232380204602F034F8034610B9184669
:103DA0000BB030BD072001F0ABF9012001F0D4FECB
:103DB00012238DF8083000238DF809301A4607E0E9
:103DC0000AA9194411F8201C0A44D2B201339BB24B
:103DD000012BF5D98DF80A20009400231A460321FF
:103DE00002A801F0EDFD20B19DF80A302B700123EF
:103DF000D5E70023D3E730B58BB004460D4620222B
:103E0000002102A84BF0A5FD0DB100232B80284610
:103E100001F0F7FF034610B918460BB030BD07207C
:103E200001F06EF9012001F097FE11238DF80830A2
:103E300000238DF809301A4607E00AA9194411F841
:103E4000201C0A44D2B201339BB2012BF5D98DF864
:103E50000A20009500231A46032102A801F0B0FDB4
:103E600080B100230E2B09D89A1C0AA90A4412F823
:103E7000202CE25412B101339BB2F3E70023E37329
:103E80000123C9E70023C7E708B501F055FEFF2865
:103E900006D010F0100F01D1002008BD0120FCE772
:103EA0000020FAE770B5064601F046FEFF2804D16F
:103EB0000346002006B1337070BD01F03DFE03469D
:103EC0000028F7D00024052C0FD80A4B1D5D28468A
:103ED00001F06CFB0A2007F05FFD01F02DFE0346A8
:103EE000854204D10134A4B2EDE70120E2E70020CD
:103EF000E0E700BFAC2A0E6010B584B00446002392
:103F00000293019305E0019B01330193029B01336E
:103F10000293029BA3421FD2029B23F0250343F08E
:103F20000103DBB28DF803309DF8030001F03EFB86
:103F30000A2007F031FD01F0FFFD8DF80F009DF81C
:103F40000F20D2B29DF80330DBB29A42DBD0019B46
:103F5000DBB28DF80230D9E7412001F027FB0A20BF
:103F600007F01AFD019804B010BD2DE9F0438BB0A5
:103F70000546884617469946129E149C2022002129
:103F800002A84BF0E6FC0CB100232380204601F090
:103F900038FF034618B918460BB0BDE8F083072078
:103FA00001F0AEF8012001F0D7FD14238DF80830A0
:103FB00001238DF809308DF80A5015358DF80B5016
:103FC000009400231A46042102A801F0F9FC0028FD
:103FD0003FD09DF80B3053B1B8F1000F02D0002351
:103FE00088F80030BFB300233B700123D3E7B8F15A
:103FF000000F03D09DF80C3088F8003017B19DF801
:104000000D303B70B9F1000F07D09DF80E209DF8E0
:104010000F3003EB0223A9F8003076B1002308E04B
:1040200003F108020AA90A4412F8202CF2540133C1
:104030009BB20F2BF4D90023F373139B6BB19DF844
:1040400021209DF8223003EB0223139A13800123D1
:10405000A1E700239FE701239DE701239BE70000E1
:10406000F0B583B005460E4614461F463A493B4814
:1040700002F09CF800280DDDADB1012D37D000977E
:104080002346324629461D2001F02CFA03461846E5
:1040900003B0F0BD00972346324629461D2001F0AB
:1040A00021FA0346F3E700972346324600211D20FC
:1040B00001F018FA03460028E9D023781A2B07D814
:1040C00023780022F2542378013323700123DEE7A2
:1040D0000097234606F11B0210211D2001F002FA71
:1040E00003460028D3D023781B332370E8E70097DA
:1040F0002346324601211D2001F0F4F90346002831
:10410000C5D023781A2B07D823780022F2542378BD
:10411000013323700123BAE70097234606F11B02FF
:1041200020211D2001F0DEF903460028AFD02378BE
:104130001B33DBB22370352BE6D90097234606F1FB
:10414000360221211D2001F0CDF9034600289ED022
:10415000237836332370D7E75C2A0E60086F272058
:104160002DE9F04F8BB080460C46149E179F189D8A
:104170000EB196F800900DB100232B802946104611
:1041800001F0EDFE60B94FF0000A54460EB186F81A
:1041900000900FB1A7F800A020460BB0BDE8F08F4B
:1041A00001F073FE01238DF8083002238DF80930E9
:1041B000230A8DF80A308DF80B400022134607E0E1
:1041C0000AA9194411F8201C0A44D2B201339BB247
:1041D000032BF5D98DF80C20009500231A460521F4
:1041E00002A801F0EDFB002800F0D3809DF80A3012
:1041F00043B325B101F0A0FC80B2000228809DF8F5
:104200000A30FE2B19D00CD8FD2B50D0002D00F019
:10421000C4802B8843F02F032B804FF0000A5446B4
:10422000B4E71DB12B8843F022032B80C82007F090
:10423000B3FB4FF0000A5446A8E71DB12B8843F0AA
:1042400023032B809DF80C309DF80DA00AEB032A68
:104250001FFA8AFA54452AD39DF80B9051495248C7
:1042600001F0A4FF00282BDD169B3BB19DF8132025
:104270009DF8123003EB0223169A1380159B63B14D
:104280009DF81630159A13709DF8173053709DF8ED
:10429000183093709DF81930D370052000F030FF6E
:1042A0000A2007F079FB4FF0000B5C462FE02DB1A0
:1042B0002B8843F024032B80A246CDE7A246CBE710
:1042C000169B13B10023169A1380159B002BE4D084
:1042D0000023159A137053709370D370DDE7334B3E
:1042E0001B7883B3AAEB04012029A8BF2021C9B2FF
:1042F00008EB040001F0CEF914FA80F4A4B2012016
:1043000007F04AFB062001F0E7F9834648BB544515
:10431000BFF43CAF052001F01FFC012007F03CFB7F
:10432000284601F0FEFD0028D9D10BF1010B5FFA00
:104330008BFBBBF1010FD2D8052000F0E1FE052078
:1043400007F02AFBE3E7AAEB04012029A8BF2021FC
:10435000C9B208EB040001F039F914FA80F4A4B2F0
:10436000CDE75445BFF412AFAAEB0403202B3FF76F
:104370000DAF00F01BFE00283FF408AFAAEB0401CC
:10438000C9B208EB040001F021F914FA80F4A4B2D8
:10439000FCE64FF0000A5446F8E64FF0000A544697
:1043A000F4E600BF542A0E60086F2720808427207F
:1043B00010B588B00A9C04940024039402940194DC
:1043C00000930DF11F03FFF7CBFE08B010BD10B531
:1043D00088B00C9C0494002403940B9C02940A9CC7
:1043E000019400930DF11F03FFF7BAFE08B010BD52
:1043F0002DE9F04385B080460C4617461E460C9DBD
:104400008F49904801F0D2FE00280EDD8E498D487C
:1044100001F0CCFE002814DD00221F2A1ED818F857
:104420000230DBB10132D2B2F7E7009533463A46AB
:104430002146404600F00CF90346184605B0BDE899
:10444000F08382497F4801F0B1FE0028E4DB284672
:1044500000F0F6F9FA2007F09FFADDE71A2A04D9EE
:104460001B3A5FFA82F91B2201E04FF00009009528
:10447000002341461846FFF704FC03460028DCD021
:10448000B9F1000F07D100223F2A13D8A35C8BB1EA
:104490000132D2B2F8E7009500234A46092A28BF24
:1044A000092208F11B011020FFF7EBFB034600284F
:1044B000E9D1C2E71A2A32D91B3A5FFA82F81B22E5
:1044C0000095002321460120FFF7DBFB034600286F
:1044D000B3D0B8F1000F16D0B8F11A0F22D9A8F155
:1044E0001B025FFA82F94FF01B0800950023424639
:1044F00004F11B012020FFF7C4FB034600289CD0D9
:10450000B9F1000F11D100953B4600221146FF2062
:10451000FFF7B7FB034600288FD000272EE04FF0AF
:104520000008CDE74FF00009DFE7009500234A4679
:10453000092A28BF092204F136012120FFF7A1FB37
:1045400003460028DFD178E7FA2007F025FAFA20A1
:1045500007F022FAFA2007F01FFAFA2007F01CFAF7
:104560000134A4B2C72CEFD929460DF10F00FFF793
:1045700005FC034601280CD00137BFB2B84606EB54
:1045800086039F4246DA4FF6FF739F4242D00024D3
:10459000E8E79DF80F20042A31D015D8022A23D04D
:1045A000032AE9D1731E03EB8303023B4345E3DC9B
:1045B000002D3CD001F0C0FA83B21B029BB243F045
:1045C0004A032B80002338E7052A3FF436AFFF2A41
:1045D000D2D185B301F0B0FA83B21B029BB243F093
:1045E0004C032B80002328E7FDB101F0A5FA83B22C
:1045F0001B029BB243F04B032B8000231DE7C5B188
:1046000001F09AFA83B21B029BB243F04D032B8058
:10461000002312E78DB101F08FFA83B21B029BB227
:1046200043F032032B80002307E7002305E7002334
:1046300003E7002301E70023FFE60023FDE600BFB8
:104640005C2A0E60086F2720642A0E60842A0E60A0
:104650002DE9F0438DB080460F4614461E46149D4A
:104660002022002104A84BF074F90DB100232B8007
:10467000284601F0C6FB814618B948460DB0BDE892
:10468000F083072000F03CFD012001F065FA2223B1
:104690008DF810301D238DF81130002306E09A1C90
:1046A0000CA8024402F8201C01339BB20C2B03D847
:1046B00018F803100029F2D100238DF81F3007E00D
:1046C00003F110020CA8024402F8201C01339BB233
:1046D0000C2B02D8F95C0029F2D100238DF82D3083
:1046E0008DF82E401A4607E00CA9194411F8201C39
:1046F0000A44D2B201339BB21E2BF5D98DF82F207C
:10470000009500231A46202104A801F059F9002839
:1047100000F084809DF81290B9F1000F70D1002D47
:10472000ABD001F009FA83B21B029AB29DF81230A5
:10473000803313432B80A0E7FA2007F02DF9FA20ED
:1047400007F02AF9FA2007F027F9FA2007F024F9F0
:104750000134A4B2C72CEFD929460DF10F00FFF7A1
:104760000DFB814601280BD00137BFB206EB860353
:104770009F4247DA4FF6FF739F4243D00024E9E798
:104780009DF80F30042B2FD010D8022B20D0032BF4
:10479000EAD1002D48D001F0CFF983B21B029BB2C1
:1047A00043F04A032B804FF0000966E7052B3FF4E6
:1047B00064AFFF2BD8D1002D3CD001F0BDF983B2FE
:1047C0001B029BB243F04C032B804FF0000954E7CF
:1047D0003DB301F0B1F983B21B029BB243F04B032E
:1047E0002B804FF0000948E70DB301F0A5F983B223
:1047F0001B029BB243F04D032B804FF000093CE7B6
:104800000027B3E7CDB101F097F983B21B029BB249
:1048100043F032032B804FF000092EE74FF00009E0
:104820002BE74FF0000928E74FF0000925E74FF08C
:10483000000922E74FF000091FE74FF000091CE7CD
:1048400070B58AB004462022002102A84BF081F8FE
:1048500021461B4801F0D8FC50BB06460CB1002392
:104860002380204601F0CDFA054610B3072000F062
:1048700047FC012001F070F920238DF80830002258
:104880008DF809208DF80A3000941346032102A800
:1048900001F096F880B19DF80A507DB94CB101F055
:1048A0004BF983B21B029BB243F04E03238000E01E
:1048B000002528460AB070BD3546FAE70125F8E71D
:1048C000842A0E602DE9F0438BB0074688461546D2
:1048D0002022002102A84BF03CF80DB100232B80D0
:1048E0002946554801F090FC0646002840F09C807F
:1048F00000241FFA88F3A34240F29480284601F076
:1049000080FA002800F09580072000F0F9FB0120D4
:1049100001F022F91E238DF8083002238DF80930AA
:104920005FFA84F98DF80A9000238DF80B3008F1B6
:10493000FF339C4202DB01238DF80B3033463246B5
:1049400007E00AA9194411F8201C0A44D2B2013325
:10495000DBB2032BF5D98DF80C20009500231A4605
:10496000052102A801F02CF800285ED09DF80A303D
:10497000FD2B43D004D8ABB3FC2B49D14E4654E0B9
:10498000FE2B31D0FF2B43D1002D4ED001F0D4F8B7
:1049900083B21B029BB243F025032B8045E0D91C58
:1049A00004EB8402C2EBC2023A440AA8014411F8A3
:1049B000201CD1540133DBB2182BF0D904EB840353
:1049C000C3EBC3033B449DF8242083F820209DF8CB
:1049D000252083F821209DF9262083F82220013408
:1049E000A4B286E73346E7E7FDB101F0A5F883B24C
:1049F0001B029BB243F026032B8016E0ADB101F001
:104A00009BF883B21B029BB243F027032B800CE080
:104A10005DB101F091F883B21B029BB243F0290310
:104A20002B8002E0E6B200E0002630460BB0BDE885
:104A3000F0830646F9E700BF6C2A0E602DE9F047C7
:104A40008AB006460F4690461C46129D2022002141
:104A500002A84AF07EFF04EB840404EB8404A30064
:104A60009CB20DB100232B802946504801F0CCFBAD
:104A7000824628B14FF0000948460AB0BDE8F087E9
:104A8000284601F0BEF981460028F5D0072000F045
:104A900037FB012001F060F821238DF80830012355
:104AA0008DF809308DF80A805246002307E00AA9E4
:104AB000194411F8201C0A44D2B201339BB2022BD4
:104AC000F5D98DF80B20009500231A46042102A881
:104AD00000F076FF002863D09DF80A90B9F1000F2E
:104AE0000FD0002D5ED001F027F883B21B022B807F
:104AF000022006F051FF2B8843F03E032B80D14665
:104B0000BAE74FF00008B8F1090F2DD8FA2006F0E7
:104B100043FFFA2006F040FFFA2006F03DFFFA209E
:104B200006F03AFF08F101081FFA88F8EBE7FA20CF
:104B300006F032FFFA2006F02FFFFA2006F02CFFD5
:104B4000FA2006F029FFFA2006F026FFFA2006F0E8
:104B500023FFFA2006F020FFFA2006F01DFF0134A3
:104B6000E4B2042CE3D944462A4639463046FFF7DE
:104B7000A9FEC8B92B78262B7FF47EAF631E1FFADF
:104B800083F80CB14C46ECE7002D3FF475AF00F014
:104B9000D3FF83B21B029BB243F028032B806BE749
:104BA000D14669E7D14667E7814665E76C2A0E6022
:104BB00000B585B0029300230193009300F09CFDA3
:104BC00005B05DF804FB0000F0B585B004460D4665
:104BD00016461F460B990A4801F016FB10B100203B
:104BE00005B0F0BD0B9B0293BDF8283001930097F0
:104BF000012332462946204600F07EFDF0E700BF43
:104C0000742A0E6070B58AB006460D4614460AB185
:104C100000231380204601F0F4F8034610B918462B
:104C20000AB070BD072000F06BFA012000F094FF7D
:104C300015238DF8083002238DF809308DF80A60AD
:104C40008DF80B500022134607E00AA9194411F809
:104C5000201C0A44D2B201339BB2032BF5D98DF844
:104C60000C20009400231A46052102A800F0A8FE9B
:104C7000A0B100240DE0FA2006F08EFEFA2006F026
:104C80008BFEFA2006F088FEFA2006F085FE01343D
:104C9000A4B2132CEFD99DF80A30C0E70023BEE779
:104CA00070B58AB006460D4614460AB1002313803B
:104CB000204601F0A6F8034610B918460AB070BDA8
:104CC000072000F01DFA012000F046FF1B238DF89D
:104CD000083003238DF809308DF80A602B0A8DF80F
:104CE0000B308DF80C500022134607E00AA9194436
:104CF00011F8201C0A44D2B201339BB2042BF5D91F
:104D00008DF80D20009400231A46062102A800F019
:104D100057FE68B19DF80A3063B16CB100F00CFF2A
:104D200083B21B029BB243F03F0323800023C4E7FE
:104D30000023C2E70123C0E70023BEE72DE9F04FBF
:104D400093B007468A46904699469DF870509DF864
:104D500074601E9C0023069307930893099304B183
:104D600023802146874801F04FFA48B9214628465A
:104D7000FEF7A1FF834618B92378553B012B1CD9B8
:104D80008149824801F012FA00281ADA00230F2B19
:104D900009D818F8032012A9194401F8302C12B1CF
:104DA00001339BB2F3E712AA1344002203F8302C1C
:104DB000204601F026F8834668B9584613B0BDE88E
:104DC000F08F23463246414606A801F00BF9834690
:104DD0000028EDD1F1E7072000F092F9012000F062
:104DE000BBFE18238DF8283016238DF829308DF856
:104DF0002A704FEA1A238DF82B308DF82CA000234F
:104E00000F2B0CD812AA1A4412F8301C39B15A1DB3
:104E100012A8024402F8201C01339BB2F0E70533CC
:104E20009BB206E012AA1A44002102F8201C0133AA
:104E30009BB2142BF6D94FEA19238DF83D308DF82B
:104E40003E908DF83F500022134607E012A9194406
:104E500011F8201C0A44D2B201339BB2172BF5D9AA
:104E60008DF8402000940023052219210AA800F0A3
:104E7000A7FD00287AD09DF82AB0BBF1000F0FD013
:104E8000002C76D000F058FE83B21B029AB29DF837
:104E90002A30C3F18003134323804FF0000B8CE7CB
:104EA000002F69D0022F6AD0012F86D14FF0000960
:104EB00041E0FA2006F070FDFA2006F06DFDFA20C0
:104EC00006F06AFDFA2006F067FD08F10108B8F166
:104ED000C70FEEDD02940021019100910B460DF108
:104EE00017022846FFF741F808B39DF81730062B44
:104EF0001DD8DFE803F0041C2D2D2D2D1000002CF3
:104F00003FF45BAF00F018FE83B21B029BB243F08C
:104F10003303238051E7002C3FF44FAF00F00CFE29
:104F200083B21B029BB243F03903238045E709F1AA
:104F300001091FFA89F906EB860399450ADA4FF64B
:104F4000FF73994506D04FF000088DF81780BEE733
:104F5000BB4632E7002C3FF430AF00F0EDFD83B2EA
:104F60001B029BB243F03403238026E74FF0000B73
:104F700023E74FF0000B20E74FF0010B1DE74FF048
:104F8000010B1AE7842A0E606C2A0E60086F272036
:104F900008B500F0D1FDFF2806D010F0800F01D138
:104FA000002008BD0120FCE70020FAE708B500F06A
:104FB000C3FD034618B110F0200F02D0002318469D
:104FC00008BD0123FBE708B500F0B6FDFF2806D0B9
:104FD00010F0010F01D1002008BD0120FCE70020E6
:104FE000FAE700002DE9F04F8BB0834688469146E2
:104FF0001D46159C2022002102A84AF0AAFC0CB1F3
:105000000023238021463D4801F0FEF8074628B1E1
:105010004FF0000A50460BB0BDE8F08F204600F07C
:10502000F0FE82460028F5D0072000F069F8012044
:1050300000F092FD1B2D00D91B258DF808B0AB1C8C
:105040008DF809309DF850308DF80A308DF80B80BE
:10505000002308E01A1D19F803100AA8024402F8F8
:10506000201C01339BB21A2B3DD8AAB29A42F1D828
:105070003A46002107E00AAB0B4413F8203C1A44DF
:10508000D2B2013189B208469DF809300233994203
:10509000F1DB0AAB184400F8202CBBF1280F14BF39
:1050A00000260126B8F1FF0F08BF0026F6B94FF41D
:1050B0007A72013100940023C9B202A800F080FC8A
:1050C000B0B19DF80AA0BAF1000F13D1002CA1D005
:1050D00000F032FD83B21B029AB29DF80A30803391
:1050E0001343238096E73A460021CCE70A22E0E703
:1050F000BA468FE74FF0010A8CE700BF7C2A0E60AA
:10510000F8B5044600F018FD0127A740FF437FB221
:1051100007EA0003DBB298421CD006460024B4F52F
:105120007A7F0BD200F008FD0546864206D00220A9
:1051300006F032FC0134A4B22E46F0E707EA05007F
:10514000C0B2854206D000F0FB0000F02FFA0A2022
:1051500006F022FCF8BD00002DE9F0438BB081463B
:10516000884617461E46129C0CB100232380214618
:10517000304801F049F8054620B1002318460BB02D
:10518000BDE8F083204600F03CFE03460028F5D041
:105190000720FFF7B5FF012000F0DEFC2D238DF87E
:1051A0000830F31C8DF809308DF80A908DF80B80CB
:1051B0008DF80C600023B2B29A4208D95A1DF95CEE
:1051C0000AA8024402F8201C01339BB2F3E72A46E6
:1051D000002108469DF809300233994208DA0AABEB
:1051E0000B4413F8203C1A44D2B2013189B2F0E7E3
:1051F0000AAB184400F8202C0131009400231A4611
:10520000C9B202A800F0DCFB68B19DF80A3063B1B6
:105210006CB100F091FC83B21B029BB243F04103DE
:1052200023802B46AAE72B46A8E70123A6E72B46B7
:10523000A4E700BF742A0E602DE9F0418EB0064647
:105240000D4617469846149C0CB100232380029407
:105250000023019300930DF116020DF1170128466A
:10526000FEF783FE0346002863D09DF81730022B1B
:1052700054D81BB19DF81620002A5ED01EB9002B11
:105280005DD0012B31D00EB9022B34D0204600F076
:10529000B8FD034600284CD00720FFF731FF01205E
:1052A00000F05AFC002E4CD019238DF81830012341
:1052B0008DF819308DF81A50A7B13B788DF81B3056
:1052C0007B788DF81C30BB788DF81D30FB788DF81D
:1052D0001E304FEA18238DF81F308DF820800723E9
:1052E0008DF819300022114635E09DF81620062A67
:1052F000C9D1572513E000210EAA02F8231D0294FC
:10530000019100910B46284600F066F8034680B1F3
:105310009DF81530002BB9D1572500E05425002CFD
:1053200054D000F009FC83B21B029BB22B432380B4
:10533000002318460EB0BDE8F0815425EFE757254D
:10534000EDE71A23B1E70EAB0B4413F8203C1A44E7
:10535000D2B20131C9B208469DF8193002339942E0
:10536000F1DB0EAB184400F8202C0131009400232F
:105370001A46C9B206A800F023FB48B39DF81A20CC
:10538000B2F1F40318BF0123002A08BF00236BB158
:1053900004B300F0D1FB83B21B029AB29DF81A301D
:1053A000C3F18003134323800023C2E79DF8173025
:1053B00043B10024072C07D8FA2006F0EDFA013497
:1053C000E4B2F7E70123B4E70123B2E70023B0E733
:1053D0000023AEE70023ACE72DE9F0418AB0054693
:1053E0000F4616469846129C2022002102A84AF039
:1053F000B0FA0EB1002333700CB100232380204695
:1054000000F0FFFC034618B918460AB0BDE8F08169
:105410000720FFF775FE012000F09EFB2F238DF87B
:10542000083002238DF809308DF80A508DF80B7082
:10543000313557FA85F18DF80C10009400231A4687
:10544000052102A800F0BCFA002845D09DF80C30D8
:10545000E3B1002C42D000F06FFB83B21B029BB281
:1054600023809DF80C20FF2A06D0FE2A09D043F0A5
:10547000350323800023C7E743F05A03238000232A
:10548000C2E743F05B0323800023BDE716B19DF81C
:105490000D303370109B63B19DF80E30109A13706D
:1054A0009DF80F3053709DF8103093709DF81130B7
:1054B000D370119B3BB19DF812209DF8133003EB84
:1054C0000223119A1380B8F1000F09D09DF814300F
:1054D00088F80030012397E7002395E7002393E73E
:1054E000012391E72DE9F0478AB006468A469046A7
:1054F0001F46129C2022002102A84AF02AFA0CB171
:10550000002323802146284800F07EFE814620B1FA
:10551000002528460AB0BDE8F087204600F071FC5F
:1055200005460028F5D00720FFF7EAFD012000F02E
:1055300013FB8DF8086001238DF809308DF80AA05F
:105540001E445AFA86F18DF80B10009400231A4677
:10555000042102A800F034FA18B39DF80A5065B986
:10556000002CD6D000F0E8FA83B21B029AB29DF864
:105570000A30803313432380CBE79DF80930023B88
:105580003B70002308E01A1D0AA90A4412F8202CD7
:1055900008F8032001339BB23A789A42F3D80125E8
:1055A000B7E74D46B5E700BF7C2A0E6010B504464C
:1055B000002006F0CDF90120FEF772FA2046FEF732
:1055C00093FA012006F0C4F910BD0000F0B583B0D5
:1055D0000F46002956D0202900D920270646002052
:1055E00006F0B6F90320FEF75BFA0020FEF77CFA1E
:1055F00000258DF8075037E00020FEF751FA9DF89E
:1056000007300133DBB28DF807309DF80730DBB28D
:10561000A342F1D300238DF807300BE09DF807304B
:105620002B4491F87420F2549DF807300133DBB21B
:105630008DF807309DF80730DBB2A34212D2134B2E
:1056400000221A80124B19684B6913F0020FE5D142
:105650000E4A138801339BB213804EF660229342A8
:10566000F0D9DBE72544EDB2AF4208D97C1BE4B2A8
:10567000082C00D9082400238DF80730C5E7012045
:1056800006F066F9384603B0F0BD00BFC884272095
:105690007C84272070B5064620290DD80D460D4B79
:1056A00003221A7000245C70204606F051F9012094
:1056B00006F04EF9204609E02025F0E7821C054B54
:1056C000134493F8223033540130C0B28542F5D8E8
:1056D000284670BD8484272010B5044600F02CFABB
:1056E000FF2807D0204110F0010F01D1002010BD8C
:1056F0000120FCE70020FAE72DE9F0478EB0804654
:105700000C4691461F46169EBDF85CA0189D0023CE
:10571000029303930493059305B12B80012F24D0AA
:10572000284600F06EFB002841D10026022000F040
:1057300013FA022006F030F90F21042000F044FB98
:10574000002800F02C813346B6F5807F28BF4FF447
:105750008073A34205D3F92C40F225810A2006F07C
:105760001BF930460EB0BDE8F0879249924800F030
:105770001DFD002811DA00230F2B08D8F25C0EA9BA
:10578000194401F8302C12B101339BB2F4E70EAA90
:105790001344002203F8302CC2E72B461422314672
:1057A00002A800F01FFC0028BAD10026D9E700F0BB
:1057B00092FB00238DF8183004228DF819208DF803
:1057C0001A90220A8DF81B208DF81C408DF81D3090
:1057D000012F02D000210B4631E001238DF81D304E
:1057E000002306E09A1D0EA8024402F8201C013393
:1057F0009BB20F2B05D80EAA1A4412F8301C0029B0
:10580000F0D106339BB206E00EAA1A44002102F83A
:10581000201C01339BB2152BF6D94FEA1A238DF8C1
:105820002E308DF82FA016238DF81930D2E70EAA4E
:105830001A4412F8202C1144C9B201339BB2184605
:105840009DF8192002329342F1DB0EAB184400F8A8
:10585000201C9DF819100331009500231A46C9B287
:1058600006A800F0ADF8002800F087809DF81A30F7
:10587000002B5AD025B100F05FF980B200022880D9
:105880009DF81A30F83B072B47D8DFE803F03E3687
:105890002E261E160E041DB12B8843F012032B80FA
:1058A000C82006F079F8002640E7002D67D02B8845
:1058B00043F013032B80002638E7002D61D02B889E
:1058C00043F014032B80002630E7002D5BD02B889B
:1058D00043F015032B80002628E7002D55D02B8898
:1058E00043F018032B80002620E7002D4FD02B8893
:1058F00043F019032B80002618E7002D49D02B8890
:1059000043F01A032B80002610E7002D43D02B888C
:1059100043F01B032B80002608E7002D3DD02B8889
:1059200043F01F032B80002600E70B2006F034F81D
:10593000002611E0202716E0F9B208EB060000F07F
:1059400001FA0B2006F028F8284600F02DFB00286D
:105950003FF4ECAE3E44B6B2A642BFF4E7AEA31BA2
:10596000202BE7DC9FB2154B1B78002BE4D0F9B25B
:1059700008EB060000F0CAF9E3E70026D6E60026A9
:10598000D4E60026D2E60026D0E60026CEE60026A3
:10599000CCE60026CAE60026C8E60026C6E60220B7
:1059A00000F0DAF8CFE6142005F0F6FFE0B2C043CD
:1059B000C0B2D4E66C2A0E60086F272080842720AE
:1059C0002DE9F84307461446994690F8008000F008
:1059D00069F90A2005F0E0FF0CE0FA2005F0DCFF91
:1059E000FA2005F0D9FFFA2005F0D6FFFA2005F0DD
:1059F000D3FF2C46631E9DB2002CEED1089800F018
:105A0000D3FA002800F087804FF47A7606FB09F677
:105A10003609474BA3FB0636F60901362546A9464B
:105A2000B54206D2089800F00BFA10B90135ADB2B4
:105A3000F5E7B14501D300206EE020213846FFF79D
:105A4000C5FD0A2005F0A8FF0720FFF759FB79786C
:105A5000002304E03A5D1344DBB20134A4B28A1C93
:105A60009442F7DB39448A789A420DD0089B002B88
:105A700054D000F061F883B21B029BB243F03003B4
:105A8000089A1380002047E03B7823F080034345C9
:105A90000DD0089B002B43D000F04EF883B21B02C0
:105AA0009BB243F03103089A1380002034E00021B8
:105AB000204800F0A9FB002834D1BB78782B01D016
:105AC000012029E0089B002B2ED000F035F883B28E
:105AD0001B029BB2089A1380BA78032A15D8DFE814
:105AE00002F02502080E43F04503089A13800020B7
:105AF00012E043F04603089A138000200CE043F0C4
:105B00004703089A1380002006E043F04803089AF0
:105B10001380002000E00020BDE8F8830020FBE7B0
:105B20000020F9E70120F7E70020F5E70120F3E77F
:105B3000C55A7C0A842A0E6010B5002005F008FFC3
:105B40000420FDF7ADFF0020FDF7CEFF0446012045
:105B500005F0FEFE204610BD2DE9F0418046FFF71E
:105B6000EBFF0646012707FA08F77FB247EA000372
:105B7000DBB298420FD00024B4F57A7F13D2FFF73E
:105B8000DBFF054686420ED0022005F005FF0134FA
:105B9000A4B22E46F0E7B8F1020F18BFB8F1050F16
:105BA00010D10024E8E747EA0500C0B285420BD0D7
:105BB000B8F1020F01D000F0FB00FFF7F7FC0A205C
:105BC00005F0EAFEBDE8F081B8F1020F18BFB8F1A8
:105BD000050FEDD0F6E7000030B58FB005460C4656
:105BE00009B100230B80204600F00BF9034610B9E1
:105BF00018460FB030BD0720FFF782FA0120FFF7EB
:105C0000ABFF42238DF8183001238DF819308DF841
:105C10001A50002308E0DA1C2049C95C0EA802448F
:105C200002F8201C01339BB20F2BF4D91C4A03ABA2
:105C300007CA03C31A7000238DF815300BE003F177
:105C400013020EA9194411F82C1C0EA8024402F8E4
:105C5000201C01339BB2092BF1D91B238DF819307D
:105C60000023194607E00EAA0A4412F8202C134418
:105C7000DBB2013189B21C29F5D90EAA0A4402F817
:105C8000203C0131009400231A46C9B206A8FFF750
:105C900097FE08B10123ABE70023A9E79C2A0E6019
:105CA000402A0E6069B370B506460D461F2900D91B
:105CB0002025002005F04CFE0220FDF7F1FE00201B
:105CC000FDF7EEFE002404E0305DFDF7E9FE01344F
:105CD000E4B2A542F8D80B4B00221A800A4B1B688D
:105CE0005B6913F0807F08D0064A138801339BB2AA
:105CF00013804EF660229342F0D9012005F028FE71
:105D000070BD7047C88427207C84272038B51F29A0
:105D100000D920210A4A022313700023537005E0A2
:105D20009A1CC55C064CA5540133DBB29942F7D8E6
:105D3000002005F00DFE012005F00AFE38BD00BF71
:105D40008484272069B370B506460D461F2900D903
:105D50002025002005F0FCFD0220FDF7A1FE00201B
:105D6000FDF79EFE002404E0305DFDF799FE01344E
:105D7000E4B2A542F8D80B4B00221A800A4B1B68EC
:105D80005B6913F0807F08D0064A138801339BB209
:105D900013804EF660229342F0D9012005F0D8FD21
:105DA00070BD7047C88427207C84272008B5FFF782
:105DB000C3FEFF2806D010F0020F01D1012008BD5C
:105DC0000020FCE70020FAE770B506460D460024E7
:105DD00004E0022005F0E0FD0134A4B2B4EB550F5D
:105DE0000DD24FF6FF739C4207D0FFF7A5FEFF28A8
:105DF000EFD03042EDD0012002E0002000E0002092
:105E000070BD38B50546002446F2A7139C4208D859
:105E1000FFF7D9F880B9022005F0BEFD0134A4B225
:105E2000F2E75DB1FFF788FE83B21B029BB243F03D
:105E300010032B80002000E0012038BD0020FCE78B
:105E400038B50546002446F2A7139C420CD8FFF74C
:105E50009FF828B9022005F09FFD0134A4B2F2E7B3
:105E600000232B80012038BD6DB1FFF765FE83B2A2
:105E70001B022B80022005F08FFD2B8843F01603B8
:105E80002B800020EFE70020EDE770B5FFF754FE10
:105E900000F05F0343F0020398421BD00646002443
:105EA000B4F57A7F0BD2FFF747FE0546864206D04F
:105EB000022005F071FD0134A4B22E46F0E705F092
:105EC0005F0040F00200854204D0FFF76FFB0A201C
:105ED00005F062FD70BD70B5FFF72EFE00F07B038C
:105EE00043F0020398421BD006460024B4F57A7FA3
:105EF0000BD2FFF721FE0546864206D0022005F0B0
:105F00004BFD0134A4B22E46F0E705F07B0040F0D3
:105F10000200854204D0FFF749FB0A2005F03CFD52
:105F200070BD38B50546002446F2A7139C4207D839
:105F3000FFF73CF878B9022005F02EFD0134F3E7B5
:105F40005DB1FFF7F9FD83B21B029BB243F0200362
:105F50002B80002000E0012038BD0020FCE770B558
:105F600005460E4600244FF47A7303FB05F3B4EBA9
:105F7000530F0AD2B4F1FF3F07D0FDF785FF78B980
:105F8000022005F009FD0134EDE75EB1FFF7D4FD15
:105F900083B21B029BB243F010033380002000E069
:105FA000012070BD0020FCE738B50546002446F20C
:105FB000A7139C4207D8FFF7F9FE78B9022005F035
:105FC000EBFC0134F3E75DB1FFF7B6FD83B21B02D2
:105FD0009BB243F011032B80002000E0012038BD6C
:105FE0000020FCE72DE9F0418EB004460D4617462F
:105FF0001E462022002106A849F0ABFC0EB100236A
:1060000033803146674800F0FFF88046002840F0B2
:10601000C080654B0DF1080C0FCB8CE80F000023FE
:106020000F2B09D8E95C0EAA1A4412F8302C9142C1
:1060300002D101339BB2F3E70F2B0CD9002306E00A
:106040000EAA1A4412F8302CE25401339BB20F2BE3
:10605000F6D901239EE03046FFF7D3FE0346002821
:1060600000F098800720FFF74BF80120FFF774FD40
:1060700025238DF818308DF81A7000231B2B09D8B2
:10608000DA1CE95C0EA8024402F8201C11B10133AD
:106090009BB2F3E71846D91C0EAA1144002201F85E
:1060A000202C02338DF819304146134607E00EAA22
:1060B0001A4412F8202C1144C9B201339BB21D4678
:1060C000021D9342F3DB0EAB1D4405F8201C9DF826
:1060D00019101E2F28BF1E27C7EB471307EB830796
:1060E000FB009BB2033100960022C9B206A8FFF75D
:1060F00067FC002852D09DF81A308BB1002E4FD08B
:10610000FFF71AFD83B21B029BB233809DF81A2061
:10611000FA3A052A38D8DFE802F0322D28231E1972
:1061200000230F2B0ED89DF81920023A934209DA6A
:10613000DA1C0EA90A4412F8202CE25412B10133E1
:106140009BB2EEE70022E254012323E043F03A033E
:10615000338043461EE043F03B033380434619E05F
:1061600043F03C033380434614E043F05E03338046
:1061700043460FE043F05F03338043460AE043F0B9
:106180005F033380434605E043F03D0333804346DD
:1061900000E0002318460EB0BDE8F0814346F9E761
:1061A0004346F7E76C2A0E608C2A0E6070B4002319
:1061B0000AE00022C2540EE02A78AAB10C5D9CB11C
:1061C000A24211D10133DBB21C46C518C25C533A5E
:1061D000D2B2012AEDD90E190A5D533AD2B2012A80
:1061E000EAD800220A55E7E733789A4206D808D061
:1061F00001D3012003E04FF0FF3000E0012070BC2C
:1062000070470020FBE7000010B50C4601460A4825
:10621000FFF7CCFF002801DB002010BD4CB1FFF7D9
:106220008BFC83B21B029BB243F0770323800120D7
:10623000F3E70120F1E700BF086F27205FEA400C79
:1062400008BF91F0000F4FEA8C234FEAC12243EAC6
:1062500051514FEA1C5018BF00F5F0404FEA300092
:1062600018BF41F000415FEA6C5C00F02980BCF18E
:10627000FF3F08BF40F080407047130C06BF120478
:106280004FF0100C4FF0000C130E04BF12020CF173
:10629000080C130F04BF12010CF1040C930F04BF80
:1062A00092000CF1020CD30F04BF52000CF1010C50
:1062B00011464FF00002A0F11F00A0EB0C00704748
:1062C00011F0004F08BF704731F000413FF4D5AFE7
:1062D0000B0C06BF09044FF0100C4FF0000C0B0E16
:1062E00004BF09020CF1080C0B0F04BF09010CF1EB
:1062F000040C8B0F04BF89000CF1020CCB0F04BF00
:1063000049000CF1010CCCF12003A0EB0C0022FAA7
:1063100003F302FA0CF241EA030100F101007047B5
:1063200020F07F4C80EA030023F07F47ACEB0703AB
:1063300003F57C5300F0004003F1FF032DE9804991
:106340004FEA154B09B44FEA144325EA0B4E24EAF1
:1063500003480FF2042606EB132749083E785FEA4C
:10636000320203FB0667C7F5000707FB06F64FEA94
:1063700054374FEAD64606F1020607FB066CCCF10D
:10638000005C4FEA1C472CEA074C07FB06F40CFBA9
:1063900006F504EB15464FEA961634BF00204FF081
:1063A00000404FEAD13706FB07FC4FEA1C4C0CFBC0
:1063B0000BF7D21B03FB0CF761EB07010CFB0EF78D
:1063C000B0EB074072EB17420CFB08F734BFA2EBAF
:1063D0000742B2EB074261EB17414FEA0C444FEA28
:1063E000910706FB07FC4FEA1C4C0CFB0BF7B0EBCC
:1063F000C74072EB573203FB0CF734BFA2EBC74226
:10640000B2EBC74261EB57310CFB0EF7B0EBC700A4
:1064100072EB57720CFB08F734BFA2EBC702B2EB6A
:10642000C70261EB5771039F4FEA816141EA921104
:1064300004EBCC044FEAD1374FEA826206FB07FC3B
:1064400042EA90124FEA80604FEA1C4C0CFB0BF7BB
:10645000D21B03FB0CF761EB07010CFB0EF7B0EB53
:10646000074072EB17420CFB08F734BFA2EB074260
:10647000B2EB074261EB17414FEA8C554FEA9107A7
:1064800004EB9C2406FB07FC4FEA1C4C0CFB0BF7AF
:10649000B0EBC74072EB573203FB0CF734BFA2EBF3
:1064A000C742B2EBC74261EB57310CFB0EF7B0EBC2
:1064B000C70072EB57720CFB08F734BFA2EBC702A0
:1064C000B2EBC70261EB577115EB4C254FEA8161C6
:1064D00041EA92114FEA82624FEAD13742EA9012C2
:1064E00006FB07FC44F100044FEA80604FEA1C4CB5
:1064F0000CFB0BF7D21B03FB0CF761EB07010CFB4A
:106500000EF7B0EB074072EB17420CFB08F734BFF5
:10651000A2EB0742B2EB074261EB174115EB1C15EA
:106520004FEA813141EA92414FEA823242EA904297
:106530004FEA80304FEA0C7644F1000448EA034306
:106540004EEA0B484FF0000EB2EB080C71EB03075C
:1065500024BF624639464EEB0E0E4FF0000B00187A
:10656000524149414BEB0B0BB2EB080C71EB0307AB
:106570007BF1000B24BF624639464EEB0E0E4FF006
:10658000000B0018524149414BEB0B0BB2EB080CCE
:1065900071EB03077BF1000B24BF624639464EEBDB
:1065A0000E0E51EA020718BF46F0010616EB0E76F2
:1065B00055F1000254F1000103D5BDE88901BDE8A1
:1065C0000088BDE88901BDE80048B619524141EB99
:1065D0000101A3F10103704780807F7E7D7C7B7A7F
:1065E0007978777676757473727171706F6E6E6D7F
:1065F0006C6C6B6A6A696868676666656464636325
:1066000062616160605F5F5E5E5D5D5C5C5B5B5AAA
:106610005A59595858575756565555555454535317
:1066200052525251515050504F4F4F4E4E4D4D4D72
:106630004C4C4C4B4B4B4A4A4A49494948484847BD
:1066400047474746464645454544444444434343FB
:106650004342424242414141002B9C4630D47700A4
:106660002BD01CB54FEA370703B44FF010004FF0A2
:106670001001BAF1000F06D0BCF1000FDCBF40F0F2
:10668000080040F0080180F007FF0FBCBDE8104093
:106690000BF1010BBBF1010F08BF5FEA170722BF27
:1066A00012F1010211F101014FF0004143F1000329
:1066B00000F0004043EA00007047F9D35708D0E7E4
:1066C00046EA064613F1400F4FEA16461FDD13F166
:1066D000200FDFBF16430A46002120335B42BED0A5
:1066E000C3F1200746EA064602FA07F74FEA1646C4
:1066F00046EA0706C3F1200722FA03F201FA07F778
:1067000021FA03F14FF0000342EA0702A7E746EA45
:10671000020646EA06464FEA164646EA0106BCBFAE
:1067200046EA0646360C4FF000034FF000024FF0E9
:10673000000194E72DE9804C9A46934670B491E8A5
:10674000380007C831EA400C48BF34EA430C03D58F
:10675000FFF7E6FDFFF780FFF0BCBDE8008C2DE9F8
:10676000804C9A46934670B491E8380007C810F000
:10677000804F08BF13F0804F03D100F005F8FFF7FA
:106780006BFFF0BCBDE8008C20F07F4780EA03007F
:1067900023F07F4C07EB0C03A3F57C5300F0004083
:1067A000A3F1FE0392F0000F00F0B38095F0000F0C
:1067B00000F077802DE901494FEA11404FEA144675
:1067C00021EA004800FB06FC24EA064708FB06F61F
:1067D00007FB08F800FB07F718EB06484CEB164CD4
:1067E0004FEA124B18EB07484FEA15464CEB17409F
:1067F00022EA0B4E0BFB06FC25EA06470EFB06F6CB
:1068000007FB0EFE0BFB07F71EEB064E4CEB164C80
:106810004FF000061EEB074E4CEB174B18EB0B0826
:1068200040F1000018EB0E0B58EB000840F100009F
:106830008F1A4FF000013CBFC943661B14BFB5EB74
:10684000040C00213CBFC943F61B4FEA17444EEA33
:106850008E0E27EA04454FEA1C4704FB07622CEA28
:10686000074C05FB07F70CFB05F604FB0CFC16EBCD
:10687000074642EB174216EB0C4642EB1C421BEB61
:10688000060658EB0202414146EA9E0601D5BDE8E4
:106890000189B619524141EB0101A3F10103BDE8A1
:1068A00001894FEA14454FEA114724EA054621EAD7
:1068B000074C05FB07F406FB07F70CFB06F105FB8D
:1068C0000CFC11EB074144EB17444FEA124711EB64
:1068D0000C4144EB1C4422EA074C05FB07F206FB83
:1068E00007F70CFB06F605FB0CFC16EB074642EB24
:1068F000174216EB0C4642EB1C456A1854F1000196
:1069000048BF7047B619524141EB0101A3F10103A1
:10691000704795F0000F37D04FEA11424FEA144705
:1069200021EA024624EA074C02FB07F106FB07F7BF
:106930000CFB06F402FB0CFC14EB074441EB174183
:106940004FEA154714EB0C4441EB1C4125EA074C78
:1069500002FB07F506FB07F70CFB06F602FB0CFC37
:1069600016EB074645EB174516EB0C4645EB1C426C
:10697000121951F1000148BF7047B619524141EB5D
:106980000101A3F1010370474FEA14454FEA114793
:1069900024EA054621EA074C05FB07F106FB07F749
:1069A0000CFB06F24FF0000605FB0CFC12EB074255
:1069B00041EB174112EB0C4251EB1C4148BF7047B1
:1069C000921841EB0101A3F10103704740F2717C81
:1069D000C0F2000C604740F28F6CC0F2000C6047C0
:1069E00040F2B17CC0F2000C604740F2815CC0F222
:1069F000000C604740F20B6CC0F2000C604741F69F
:106A0000810CC0F2000C604740F6A10CC0F2000CF3
:106A1000604740F26D7CC0F2000C604740F6BB2C32
:106A2000C0F2000C604741F6670CC0F2000C6047F2
:106A300040F6394CC0F2000C604740F6A14CC0F261
:106A4000000C604740F6714CC0F2000C604740F605
:106A5000B94CC0F2000C604740F2F36CC0F2000C7D
:106A6000604741F2CD6CC0F2000C604741F22D7CD2
:106A7000C0F2000C604740F6597CC0F2000C604741
:106A800040F6F16CC0F2000C604740F6CD6CC0F2ED
:106A9000000C604741F2312CC0F2000C604741F21B
:106AA000C96CC0F2000C604741F2B96CC0F2000C36
:106AB000604741F2C56CC0F2000C604741F25B7C5C
:106AC000C0F2000C604741F2997CC0F2000C6047B4
:106AD00041F2477CC0F2000C604741F2677CC0F293
:106AE000000C604741F2D37CC0F2000C604741F2D9
:106AF0003D7CC0F2000C604741F2397CC0F2000CD2
:106B0000604741F2137CC0F2000C604741F2F16C27
:106B1000C0F2000C604741F6B90CC0F2000C6047AF
:106B200040F6154CC0F2000C604740F6315CC0F2F4
:106B3000000C604740F68F4CC0F2000C604741F6F5
:106B4000BD0CC0F2000C604741F2B91CC0F2000C51
:106B5000604740F6855CC0F2000C604741F25D3C46
:106B6000C0F2000C604741F2914CC0F2000C60474B
:106B700040F6C57CC0F2000C604741F2053CC0F213
:106B8000000C604741F2713CC0F2000C604741F2DA
:106B9000A56CC0F2000C604741F2591CC0F2000C19
:106BA000604740F6E34CC0F2000C604740F2393CCD
:106BB000C2F2000C604740F67D0CC2F2000C604748
:106BC00041F2354CC0F2000C604740F64B5CC0F21D
:106BD000000C604740F6A54CC0F2000C604700EB8B
:106BE0008100406A7047006A01228A401040C84014
:106BF00070470121417100210170417003228170B1
:106C0000C17001718171C171027241720221817280
:106C100070470000054A0146002052F820308B42A0
:106C200002D0401C0328F8D37047000078F30860B6
:106C300070B50C460546FFF7EDFF204931F910000D
:106C400000F083FE686C4FF4C052A1794FF440739A
:106C500000F4604002EAC121E27903EA0222114312
:106C6000227A602302F003021143627A03EA42129D
:106C70001143A27A0C2303EA8202114301432078D4
:106C800008B141F48031207908B141F01001E07879
:106C900008B141F08001A07808B141F480616964D5
:106CA000A86C20F04101607808B141F040016079A2
:106CB00008B141F00101A96470BD000070F30860E3
:106CC0001378127903F01F030AB143F0800340F8F0
:106CD00021307047BFF34F8FBFF36F8F05480168B6
:106CE00021F48031016003487030016821F0010116
:106CF0000160704724ED00E0BFF34F8FBFF36F8F4B
:106D0000054940F00100086003487038016841F40B
:106D1000803101607047000094ED00E0274810B515
:106D200001F066FB4FF4004001F05CFB24480121B8
:106D300001F0E6FA234C0121204601F0E1FA224954
:106D4000C86820F01F0040F01202CA601F4801F01E
:106D5000D3F81E48001D01F0F3F81C48001F01F095
:106D600011F90F21002001F0F9F81948012101F073
:106D7000DDF91848002101F0D9F91748032101F085
:106D8000D5F91648032101F0BBFA0021204601F095
:106D9000B7FA00F0A1FD00F0B5FD00F0A5FD00F090
:106DA000ABFD0F48002101F0ABFA0E48002101F0C5
:106DB000BDF9BDE810400AF051BB000000366E017D
:106DC000186C00801439001400000840787F0960B6
:106DD00010E0004014EA000414680080187200807B
:106DE0002426008024E0078010B508F065FB08F039
:106DF00037FBFFF76FFF0D4810210160011D0C4AA2
:106E00000A600C4B03600A600B4A02600B4A0A607E
:106E10000B4A02600948143008600420FFF76CFF39
:106E200008F08AFBBDE8104008F0CABB9CED00E00A
:106E30002500080311000020120020202500030374
:106E40001300006070B50B4800F094FE0A4D48B185
:106E500000F0BEFE0446284600F0F0FD401CB4FBE6
:106E6000F0F070BD054800F023FF0621B0FBF1F4FF
:106E7000F1E700002426008024E007800D001000C8
:106E800010B5FFF7DFFFBDE81040022203460248BD
:106E90004FF4E13101F0E2BF004018402DE9FC5F02
:106EA00040F2024000F072FD0024B548234622461D
:106EB0002146CDE90004B34803F028FAB048002386
:106EC0001A461946001DCDE90004AE48001D03F026
:106ED0001DFAAB4800231A4619460830CDE90004D4
:106EE000A848083003F012FAA54800231A461946AC
:106EF0000C30CDE90004A3480C3003F007FAA04899
:106F00000023A04F1A46103019461037CDE900046F
:106F1000384603F0FBF99A4E002307F104081A469D
:106F200014361946CDE90064404603F0EFF9964D5A
:106F3000002393481A461946CDE90005914803F00D
:106F4000B9F9924900238E481A46001DCDE9000187
:106F50008C481946001D03F0ADF9894800231A46F4
:106F600019460830CDE900058648083003F0A2F93B
:106F7000834800231A4619460C30CDE90005381F16
:106F800003F098F9301F0023CDE900051A46194691
:106F9000384603F08FF900234046CDE900651A46D4
:106FA000194603F087F97648002305211A46B838B8
:106FB000CDE900047348B83803F0A8F970480023FD
:106FC00005211A46B438CDE900046E48B43803F000
:106FD0009DF96C4E0125DFF8B8910023DFF8B4A1CC
:106FE000783602214A46CDE90065504603F08EF915
:106FF000371F09F10408AAF1040B42460023584642
:107000000221CDE9007503F081F94DF6B0054A463D
:10701000002350460221CDE9006503F04BF900231F
:10702000424602215846CDE9007503F043F9544821
:107030000023534A0421B038CDE900045148783286
:10704000B03803F063F94E48002304211A46AC38E7
:10705000CDE900044B48AC3803F058F94848012307
:10706000474A0421A838CDE9000446487C32A838B4
:1070700003F04CF942480123414A0421A438CDE9E8
:10708000000440487432A43803F040F93C4800231F
:107090003B4A0421A038CDE900043A487032A038B8
:1070A00003F034F936480023354A04219C38CDE9F1
:1070B000000434486C329C3803F028F9304800232F
:1070C0002F4A04219838CDE900042E4868329838B8
:1070D00003F01CF92A480023294A04219438CDE9F9
:1070E000000428486432943803F010F9244800233F
:1070F000234A04219038CDE90004224860329038B8
:1071000003F004F91E4800231D4A04218C38CDE900
:1071100000041C485C328C3803F0F8F8184800234F
:10712000174A04218838CDE90004164858328838B7
:1071300003F0ECF812480023114A04218438CDE909
:10714000000410485432843803F0E0F80C4D032357
:10715000104E0121DC3DCDE900540D4C9C363046EB
:10716000703C224603F0D2F841F2B00022460323DD
:107170000121CDE90050304603F09CF8BDE8FC9FAA
:10718000AC831F40BC811F40897001008940010011
:10719000E4841F4044801F400028054803D001229A
:1071A000132102F073BE0022132102F06FBE000013
:1071B00000801B4001220248122102F067BE00003D
:1071C00000801B400FB470B5DDE91550179E149C6C
:1071D000089999B1059900290F9901DD691A00E014
:1071E000491B0160002204A800F0A4F809980028B7
:1071F0000E9801DD201A14E0001B12E0049900290A
:107200000E9901DD611A00E0091B0160002204A84B
:1072100000F090F80A9800280F9801DD281A00E085
:10722000401B306070BC01205DF814FB0FB44FF0C0
:10723000FF33F0B591B0DDE91B45DDE91712CDE96B
:107240000C12DDE91912CDE90E12199A1799914223
:1072500001DA012100E0194600911A9A1899914229
:1072600001DA012100E019460191179A1999891A4A
:1072700000D549420291189A1A99891A00D54942B3
:10728000029A0391914201DD012100E00021049165
:107290000026E1B11A9A1899914202DA17A919AA9F
:1072A00001E019A917AAD1F800C017685268496807
:1072B000A7EB0C0CAD1A891AE21B0CFB05FC01FBB9
:1072C00002C1002900DD0123CDE905361BE0199A32
:1072D0001799914202DD17A919AA01E019A917AA65
:1072E000D1F800C0176852684968A7EB0C0CAD1ABA
:1072F0000596891AE21B0CFB05FC01FB02C1002963
:1073000000DD01230693DDE9171207960896CDE903
:107310000A12049909B1039900E00299402201EB95
:10732000D171491009916946FFF755FB11B0F0BCC6
:107330005DF814FB70B590B00E4614460546402229
:1073400001466846FFF747FB002E26DD079800F14F
:1073500001000790049878B101990B9808440B90AC
:1073600002990998401A099042D500990A98084450
:107370000A90039909980EE000990A9808440A9027
:1073800003990998401A099032D501990B9808443D
:107390000B9002990998084429E029DA0798401EC1
:1073A0000790049888B101990B98401A0B900299A4
:1073B0000998084403990990884219DB00990A98B2
:1073C000401A0A900399099810E000990A98401A07
:1073D0000A9003990998084402990990884207DBAA
:1073E00001990B98401A0B9002990998401A09903C
:1073F00000230BE008980599401C08900A985B1C34
:1074000008440A9006990B9808440B90A342F1DBBC
:10741000402269462846FFF7DEFA10B0012070BD11
:1074200002E002A00FF092FDFBE7000042757346F8
:1074300061756C7400000000044A024812684168DB
:1074400001481047DC74272000001D40F05727201A
:10745000044A02481268816801481047DC742720FA
:1074600000401D40F05727202DE9FF4F16462DED17
